{
  "contractName": "CommittableRegistry",
  "abi": [
    {
      "inputs": [],
      "stateMutability": "nonpayable",
      "type": "constructor"
    },
    {
      "anonymous": false,
      "inputs": [
        {
          "indexed": true,
          "internalType": "string",
          "name": "repoURI",
          "type": "string"
        },
        {
          "indexed": true,
          "internalType": "string",
          "name": "repoName",
          "type": "string"
        },
        {
          "indexed": true,
          "internalType": "string",
          "name": "repoSymbol",
          "type": "string"
        },
        {
          "indexed": false,
          "internalType": "contract Committable",
          "name": "newCommittable",
          "type": "address"
        }
      ],
      "name": "DeployCommittable",
      "type": "event"
    },
    {
      "anonymous": false,
      "inputs": [
        {
          "indexed": true,
          "internalType": "address",
          "name": "minter",
          "type": "address"
        },
        {
          "indexed": true,
          "internalType": "string",
          "name": "repoURI",
          "type": "string"
        },
        {
          "indexed": true,
          "internalType": "string",
          "name": "tokenURI",
          "type": "string"
        },
        {
          "indexed": false,
          "internalType": "uint256",
          "name": "tokenId",
          "type": "uint256"
        }
      ],
      "name": "MintCommittable",
      "type": "event"
    },
    {
      "anonymous": false,
      "inputs": [
        {
          "indexed": true,
          "internalType": "address",
          "name": "previousOwner",
          "type": "address"
        },
        {
          "indexed": true,
          "internalType": "address",
          "name": "newOwner",
          "type": "address"
        }
      ],
      "name": "OwnershipTransferred",
      "type": "event"
    },
    {
      "anonymous": false,
      "inputs": [
        {
          "indexed": true,
          "internalType": "bytes32",
          "name": "role",
          "type": "bytes32"
        },
        {
          "indexed": true,
          "internalType": "bytes32",
          "name": "previousAdminRole",
          "type": "bytes32"
        },
        {
          "indexed": true,
          "internalType": "bytes32",
          "name": "newAdminRole",
          "type": "bytes32"
        }
      ],
      "name": "RoleAdminChanged",
      "type": "event"
    },
    {
      "anonymous": false,
      "inputs": [
        {
          "indexed": true,
          "internalType": "bytes32",
          "name": "role",
          "type": "bytes32"
        },
        {
          "indexed": true,
          "internalType": "address",
          "name": "account",
          "type": "address"
        },
        {
          "indexed": true,
          "internalType": "address",
          "name": "sender",
          "type": "address"
        }
      ],
      "name": "RoleGranted",
      "type": "event"
    },
    {
      "anonymous": false,
      "inputs": [
        {
          "indexed": true,
          "internalType": "bytes32",
          "name": "role",
          "type": "bytes32"
        },
        {
          "indexed": true,
          "internalType": "address",
          "name": "account",
          "type": "address"
        },
        {
          "indexed": true,
          "internalType": "address",
          "name": "sender",
          "type": "address"
        }
      ],
      "name": "RoleRevoked",
      "type": "event"
    },
    {
      "inputs": [],
      "name": "DEFAULT_ADMIN_ROLE",
      "outputs": [
        {
          "internalType": "bytes32",
          "name": "",
          "type": "bytes32"
        }
      ],
      "stateMutability": "view",
      "type": "function"
    },
    {
      "inputs": [
        {
          "internalType": "string",
          "name": "",
          "type": "string"
        }
      ],
      "name": "activates",
      "outputs": [
        {
          "internalType": "bool",
          "name": "",
          "type": "bool"
        }
      ],
      "stateMutability": "view",
      "type": "function"
    },
    {
      "inputs": [
        {
          "internalType": "string",
          "name": "",
          "type": "string"
        }
      ],
      "name": "committables",
      "outputs": [
        {
          "internalType": "contract Committable",
          "name": "",
          "type": "address"
        }
      ],
      "stateMutability": "view",
      "type": "function"
    },
    {
      "inputs": [
        {
          "internalType": "bytes32",
          "name": "role",
          "type": "bytes32"
        }
      ],
      "name": "getRoleAdmin",
      "outputs": [
        {
          "internalType": "bytes32",
          "name": "",
          "type": "bytes32"
        }
      ],
      "stateMutability": "view",
      "type": "function"
    },
    {
      "inputs": [
        {
          "internalType": "bytes32",
          "name": "role",
          "type": "bytes32"
        },
        {
          "internalType": "uint256",
          "name": "index",
          "type": "uint256"
        }
      ],
      "name": "getRoleMember",
      "outputs": [
        {
          "internalType": "address",
          "name": "",
          "type": "address"
        }
      ],
      "stateMutability": "view",
      "type": "function"
    },
    {
      "inputs": [
        {
          "internalType": "bytes32",
          "name": "role",
          "type": "bytes32"
        }
      ],
      "name": "getRoleMemberCount",
      "outputs": [
        {
          "internalType": "uint256",
          "name": "",
          "type": "uint256"
        }
      ],
      "stateMutability": "view",
      "type": "function"
    },
    {
      "inputs": [
        {
          "internalType": "bytes32",
          "name": "role",
          "type": "bytes32"
        },
        {
          "internalType": "address",
          "name": "account",
          "type": "address"
        }
      ],
      "name": "grantRole",
      "outputs": [],
      "stateMutability": "nonpayable",
      "type": "function"
    },
    {
      "inputs": [
        {
          "internalType": "bytes32",
          "name": "role",
          "type": "bytes32"
        },
        {
          "internalType": "address",
          "name": "account",
          "type": "address"
        }
      ],
      "name": "hasRole",
      "outputs": [
        {
          "internalType": "bool",
          "name": "",
          "type": "bool"
        }
      ],
      "stateMutability": "view",
      "type": "function"
    },
    {
      "inputs": [],
      "name": "owner",
      "outputs": [
        {
          "internalType": "address",
          "name": "",
          "type": "address"
        }
      ],
      "stateMutability": "view",
      "type": "function"
    },
    {
      "inputs": [
        {
          "internalType": "string",
          "name": "",
          "type": "string"
        },
        {
          "internalType": "address",
          "name": "",
          "type": "address"
        }
      ],
      "name": "owners",
      "outputs": [
        {
          "internalType": "bool",
          "name": "",
          "type": "bool"
        }
      ],
      "stateMutability": "view",
      "type": "function"
    },
    {
      "inputs": [],
      "name": "renounceOwnership",
      "outputs": [],
      "stateMutability": "nonpayable",
      "type": "function"
    },
    {
      "inputs": [
        {
          "internalType": "bytes32",
          "name": "role",
          "type": "bytes32"
        },
        {
          "internalType": "address",
          "name": "account",
          "type": "address"
        }
      ],
      "name": "renounceRole",
      "outputs": [],
      "stateMutability": "nonpayable",
      "type": "function"
    },
    {
      "inputs": [
        {
          "internalType": "uint256",
          "name": "",
          "type": "uint256"
        }
      ],
      "name": "repos",
      "outputs": [
        {
          "internalType": "string",
          "name": "",
          "type": "string"
        }
      ],
      "stateMutability": "view",
      "type": "function"
    },
    {
      "inputs": [
        {
          "internalType": "bytes32",
          "name": "role",
          "type": "bytes32"
        },
        {
          "internalType": "address",
          "name": "account",
          "type": "address"
        }
      ],
      "name": "revokeRole",
      "outputs": [],
      "stateMutability": "nonpayable",
      "type": "function"
    },
    {
      "inputs": [
        {
          "internalType": "bytes4",
          "name": "interfaceId",
          "type": "bytes4"
        }
      ],
      "name": "supportsInterface",
      "outputs": [
        {
          "internalType": "bool",
          "name": "",
          "type": "bool"
        }
      ],
      "stateMutability": "view",
      "type": "function"
    },
    {
      "inputs": [
        {
          "internalType": "address",
          "name": "newOwner",
          "type": "address"
        }
      ],
      "name": "transferOwnership",
      "outputs": [],
      "stateMutability": "nonpayable",
      "type": "function"
    },
    {
      "inputs": [],
      "name": "numberOfRepos",
      "outputs": [
        {
          "internalType": "uint256",
          "name": "",
          "type": "uint256"
        }
      ],
      "stateMutability": "view",
      "type": "function"
    },
    {
      "inputs": [
        {
          "internalType": "string",
          "name": "repoURI",
          "type": "string"
        },
        {
          "internalType": "string",
          "name": "repoName",
          "type": "string"
        },
        {
          "internalType": "string",
          "name": "repoSymbol",
          "type": "string"
        }
      ],
      "name": "activateCommittable",
      "outputs": [
        {
          "internalType": "contract Committable",
          "name": "",
          "type": "address"
        }
      ],
      "stateMutability": "nonpayable",
      "type": "function"
    },
    {
      "inputs": [
        {
          "internalType": "string",
          "name": "repoURI",
          "type": "string"
        },
        {
          "internalType": "uint256",
          "name": "commitId",
          "type": "uint256"
        },
        {
          "internalType": "string",
          "name": "tokenURI",
          "type": "string"
        },
        {
          "internalType": "address",
          "name": "committer",
          "type": "address"
        }
      ],
      "name": "mintCommittable",
      "outputs": [
        {
          "internalType": "uint256",
          "name": "",
          "type": "uint256"
        }
      ],
      "stateMutability": "nonpayable",
      "type": "function"
    },
    {
      "inputs": [
        {
          "internalType": "string",
          "name": "repoURI",
          "type": "string"
        },
        {
          "internalType": "uint256",
          "name": "amount",
          "type": "uint256"
        }
      ],
      "name": "grantDividend",
      "outputs": [],
      "stateMutability": "nonpayable",
      "type": "function"
    }
  ],
  "bytecode": "0x60806040523480156200001157600080fd5b50600062000027640100000000620000f1810204565b60008054600160a060020a031916600160a060020a0383169081178255604051929350917f8be0079c531659141344cd1fd0a4f28419497f9722a3daafe3b4186f6b6457e0908290a350620000a760008051602062004f7b83398151915262000098640100000000620000f1810204565b640100000000620000f5810204565b620000eb7f89341f0c9faead0754f7c093873ca139e49315a61ed77c289e62607cf82f431360008051602062004f7b8339815191526401000000006200013c810204565b62000325565b3390565b6200010f828264010000000062000dd86200019382021704565b600082815260026020526040902062000137908264010000000062000de8620001ac82021704565b505050565b806200015183640100000000620001d5810204565b60405184907fbd79b86ffe0ab8e8776151514217cd7cacd52c909f66475c3af44e129f0b00ff90600090a4600091825260016020819052604090922090910155565b620001a88282640100000000620001eb810204565b5050565b6000620001cc83600160a060020a0384166401000000006200028a810204565b90505b92915050565b6000908152600160208190526040909120015490565b620002008282640100000000620002e2810204565b620001a8576000828152600160208181526040808420600160a060020a0386168552909152909120805460ff1916909117905562000246640100000000620000f1810204565b600160a060020a031681600160a060020a0316837f2f8788117e7eff1d82e926ec794901d17c78024a50270940304540a733656f0d60405160405180910390a45050565b6000620002a183836401000000006200030d810204565b620002d957508154600181810184556000848152602080822090930184905584548482528286019093526040902091909155620001cf565b506000620001cf565b6000918252600160209081526040808420600160a060020a0393909316845291905290205460ff1690565b60009081526001919091016020526040902054151590565b614c4680620003356000396000f3fe60806040523480156200001157600080fd5b506004361062000162576000357c01000000000000000000000000000000000000000000000000000000009004806391d1485411620000d8578063ca15c8731162000097578063ca15c873146200032f578063d547741f1462000346578063da2410d8146200035d578063f2fde38b1462000374578063fd5242fa146200038b57600080fd5b806391d1485414620002be5780639ccabf6e14620002d5578063a217fddf14620002de578063a4f4a4b414620002e7578063b5b2049214620002fe57600080fd5b8063434dcdeb1162000125578063434dcdeb1462000210578063715018a61462000236578063765aa8e814620002405780638da5cb5b14620002815780639010d07c14620002a757600080fd5b806301ffc9a71462000167578063248a9ca314620001935780632f2ff15d14620001c957806336568abe14620001e25780633ac0e47c14620001f9575b600080fd5b6200017e6200017836600462001794565b620003c2565b60405190151581526020015b60405180910390f35b620001ba620001a43660046200172b565b6000908152600160208190526040909120015490565b6040519081526020016200018a565b620001e0620001da36600462001744565b62000409565b005b620001e0620001f336600462001744565b62000434565b620001e06200020a366004620018d4565b6200045a565b62000227620002213660046200172b565b620005b3565b6040516200018a919062001abc565b620001e062000668565b6200017e62000251366004620017fd565b81516020818401810180516004825292820194820194909420919093529091526000908152604090205460ff1681565b600054600160a060020a03165b604051600160a060020a0390911681526020016200018a565b6200028e620002b836600462001772565b6200071e565b6200017e620002cf36600462001744565b6200073f565b600654620001ba565b620001ba600081565b6200028e620002f836600462001846565b6200076a565b6200017e6200030f366004620017be565b805160208183018101805160038252928201919093012091525460ff1681565b620001ba620003403660046200172b565b620009fe565b620001e06200035736600462001744565b62000a17565b620001ba6200036e3660046200191b565b62000a23565b620001e0620003853660046200170e565b62000c90565b6200028e6200039c366004620017be565b8051602081830181018051600582529282019190930120915254600160a060020a031681565b6000600160e060020a031982167f5a05180f000000000000000000000000000000000000000000000000000000001480620004035750620004038262000dff565b92915050565b62000415828262000e68565b60008281526002602052604090206200042f908262000de8565b505050565b62000440828262000e93565b60008281526002602052604090206200042f908262000f22565b600054600160a060020a03163314806200049b57506200049b7f89341f0c9faead0754f7c093873ca139e49315a61ed77c289e62607cf82f4313336200073f565b620004c65760405160e560020a62461bcd028152600401620004bd9062001afa565b60405180910390fd5b600382604051620004d89190620019e6565b9081526040519081900360200190205460ff166200050d5760405160e560020a62461bcd028152600401620004bd9062001b7d565b6000600583604051620005219190620019e6565b908152604051908190036020018120547f5edcac69000000000000000000000000000000000000000000000000000000008252600160a060020a031691508190635edcac69906200057a90859060040190815260200190565b600060405180830381600087803b1580156200059557600080fd5b505af1158015620005aa573d6000803e3d6000fd5b50505050505050565b60068181548110620005c457600080fd5b906000526020600020016000915090508054620005e19062001c7e565b80601f01602080910402602001604051908101604052809291908181526020018280546200060f9062001c7e565b8015620006605780601f10620006345761010080835404028352916020019162000660565b820191906000526020600020905b8154815290600101906020018083116200064257829003601f168201915b505050505081565b600054600160a060020a03163314620006c75760405160e560020a62461bcd02815260206004820181905260248201527f4f776e61626c653a2063616c6c6572206973206e6f7420746865206f776e65726044820152606401620004bd565b60008054604051600160a060020a03909116907f8be0079c531659141344cd1fd0a4f28419497f9722a3daafe3b4186f6b6457e0908390a36000805473ffffffffffffffffffffffffffffffffffffffff19169055565b600082815260026020526040812062000738908362000f39565b9392505050565b6000918252600160209081526040808420600160a060020a0393909316845291905290205460ff1690565b60008054600160a060020a0316331480620007ac5750620007ac7f89341f0c9faead0754f7c093873ca139e49315a61ed77c289e62607cf82f4313336200073f565b620007ce5760405160e560020a62461bcd028152600401620004bd9062001afa565b600384604051620007e09190620019e6565b9081526040519081900360200190205460ff16156200086b5760405160e560020a62461bcd02815260206004820152603360248201527f546865207265706f7369746f72792068617320616c7265616479206465706c6f60448201527f79656420617320436f6d6d69747461626c6521000000000000000000000000006064820152608401620004bd565b600083836040516200087d90620015ae565b6200088a92919062001ad1565b604051809103906000f080158015620008a7573d6000803e3d6000fd5b5090506001600386604051620008be9190620019e6565b908152604051908190036020018120805492151560ff19909316929092179091558190600590620008f1908890620019e6565b90815260405160209181900382019020805473ffffffffffffffffffffffffffffffffffffffff1916600160a060020a03939093169290921790915560068054600181018255600091909152865162000972927ff652222313e28459528d920b65115c16c04f3efc82aaedc97be59f3f377c0d3f90920191880190620015bc565b5082604051620009839190620019e6565b6040518091039020846040516200099b9190620019e6565b604051809103902086604051620009b39190620019e6565b604051908190038120600160a060020a0385168252907f515fce7cdcb4223827a870dcd202e53b5d35c1c8a4b6a43a63529c959e7659e19060200160405180910390a4949350505050565b6000818152600260205260408120620004039062000f47565b62000440828262000f52565b60008054600160a060020a031633148062000a65575062000a657f9282758ea1920d1023721df65bad10a1dd579dfb9879d0b721a62a09ac562762336200073f565b62000b025760405160e560020a62461bcd02815260206004820152604960248201527f436f6d6d69747461626c6552656769737472793a2063616c6c6572206973206e60448201527f6f7420726567697374727920636f6e7472696275746f72206f7220726567697360648201527f747279206f776e65720000000000000000000000000000000000000000000000608482015260a401620004bd565b60038560405162000b149190620019e6565b9081526040519081900360200190205460ff1662000b495760405160e560020a62461bcd028152600401620004bd9062001b7d565b600060058660405162000b5d9190620019e6565b908152604051908190036020018120547fd3fc9864000000000000000000000000000000000000000000000000000000008252600160a060020a03169150600090829063d3fc98649062000bba9087908a908a9060040162001a89565b602060405180830381600087803b15801562000bd557600080fd5b505af115801562000bea573d6000803e3d6000fd5b505050506040513d601f19601f8201168201806040525081019062000c1091906200199f565b90508460405162000c229190620019e6565b60405180910390208760405162000c3a9190620019e6565b604051809103902085600160a060020a03167fa73c73cecb45a06b86fe62d49205a6658e22c66c63aca239d863da1f82b9d7398460405162000c7e91815260200190565b60405180910390a49695505050505050565b600054600160a060020a0316331462000cef5760405160e560020a62461bcd02815260206004820181905260248201527f4f776e61626c653a2063616c6c6572206973206e6f7420746865206f776e65726044820152606401620004bd565b600160a060020a03811662000d705760405160e560020a62461bcd02815260206004820152602660248201527f4f776e61626c653a206e6577206f776e657220697320746865207a65726f206160448201527f64647265737300000000000000000000000000000000000000000000000000006064820152608401620004bd565b60008054604051600160a060020a03808516939216917f8be0079c531659141344cd1fd0a4f28419497f9722a3daafe3b4186f6b6457e091a36000805473ffffffffffffffffffffffffffffffffffffffff1916600160a060020a0392909216919091179055565b62000de4828262000f7d565b5050565b60006200073883600160a060020a03841662000feb565b6000600160e060020a031982167f7965db0b0000000000000000000000000000000000000000000000000000000014806200040357507f01ffc9a700000000000000000000000000000000000000000000000000000000600160e060020a031983161462000403565b6000828152600160208190526040909120015462000e8781336200103d565b6200042f838362000f7d565b600160a060020a038116331462000f165760405160e560020a62461bcd02815260206004820152602f60248201527f416363657373436f6e74726f6c3a2063616e206f6e6c792072656e6f756e636560448201527f20726f6c657320666f722073656c6600000000000000000000000000000000006064820152608401620004bd565b62000de48282620010af565b60006200073883600160a060020a03841662001119565b600062000738838362001243565b600062000403825490565b6000828152600160208190526040909120015462000f7181336200103d565b6200042f8383620010af565b62000f8982826200073f565b62000de4576000828152600160208181526040808420600160a060020a0386168086529252808420805460ff19169093179092559051339285917f2f8788117e7eff1d82e926ec794901d17c78024a50270940304540a733656f0d9190a45050565b6000818152600183016020526040812054620010345750815460018181018455600084815260208082209093018490558454848252828601909352604090209190915562000403565b50600062000403565b6200104982826200073f565b62000de4576200106481600160a060020a03166014620012fb565b62001071836020620012fb565b6040516020016200108492919062001a04565b60408051601f198184030181529082905260e560020a62461bcd028252620004bd9160040162001abc565b620010bb82826200073f565b1562000de4576000828152600160209081526040808320600160a060020a0385168085529252808320805460ff1916905551339285917ff6391f5c32d9c69d2a47ea670b442974b53935d1edc7fd64eb21e047a839171b9190a45050565b60008181526001830160205260408120548015620012385760006200114060018362001c17565b8554909150600090620011569060019062001c17565b90506000866000018281548110620011815760e060020a634e487b7102600052603260045260246000fd5b9060005260206000200154905080876000018481548110620011b65760e060020a634e487b7102600052603260045260246000fd5b600091825260208083209091019290925582815260018901909152604090208490558654879080620011fb5760e060020a634e487b7102600052603160045260246000fd5b6001900381819060005260206000200160009055905586600101600087815260200190815260200160002060009055600194505050505062000403565b600091505062000403565b81546000908210620012c15760405160e560020a62461bcd02815260206004820152602260248201527f456e756d657261626c655365743a20696e646578206f7574206f6620626f756e60448201527f64730000000000000000000000000000000000000000000000000000000000006064820152608401620004bd565b826000018281548110620012e85760e060020a634e487b7102600052603260045260246000fd5b9060005260206000200154905092915050565b606060006200130c83600262001bf5565b6200131990600262001bda565b67ffffffffffffffff811115620013435760e060020a634e487b7102600052604160045260246000fd5b6040519080825280601f01601f1916602001820160405280156200136e576020820181803683370190505b5090507f300000000000000000000000000000000000000000000000000000000000000081600081518110620013b75760e060020a634e487b7102600052603260045260246000fd5b60200101907effffffffffffffffffffffffffffffffffffffffffffffffffffffffffffff1916908160001a9053507f7800000000000000000000000000000000000000000000000000000000000000816001815181106200142c5760e060020a634e487b7102600052603260045260246000fd5b60200101907effffffffffffffffffffffffffffffffffffffffffffffffffffffffffffff1916908160001a90535060006200146a84600262001bf5565b6200147790600162001bda565b90505b60018111156200155a577f303132333435363738396162636465660000000000000000000000000000000085600f1660108110620014cb5760e060020a634e487b7102600052603260045260246000fd5b1a7f010000000000000000000000000000000000000000000000000000000000000002828281518110620015125760e060020a634e487b7102600052603260045260246000fd5b60200101907effffffffffffffffffffffffffffffffffffffffffffffffffffffffffffff1916908160001a905350601090940493620015528162001c64565b90506200147a565b508315620007385760405160e560020a62461bcd02815260206004820181905260248201527f537472696e67733a20686578206c656e67746820696e73756666696369656e746044820152606401620004bd565b612f208062001cf183390190565b828054620015ca9062001c7e565b90600052602060002090601f016020900481019282620015ee576000855562001639565b82601f106200160957805160ff191683800117855562001639565b8280016001018555821562001639579182015b82811115620016395782518255916020019190600101906200161c565b50620016479291506200164b565b5090565b5b808211156200164757600081556001016200164c565b8035600160a060020a03811681146200167a57600080fd5b919050565b600082601f83011262001690578081fd5b813567ffffffffffffffff80821115620016ae57620016ae62001cd7565b604051601f8301601f19908116603f01168101908282118183101715620016d957620016d962001cd7565b81604052838152866020858801011115620016f2578485fd5b8360208701602083013792830160200193909352509392505050565b60006020828403121562001720578081fd5b620007388262001662565b6000602082840312156200173d578081fd5b5035919050565b6000806040838503121562001757578081fd5b82359150620017696020840162001662565b90509250929050565b6000806040838503121562001785578182fd5b50508035926020909101359150565b600060208284031215620017a6578081fd5b8135600160e060020a03198116811462000738578182fd5b600060208284031215620017d0578081fd5b813567ffffffffffffffff811115620017e7578182fd5b620017f5848285016200167f565b949350505050565b6000806040838503121562001810578182fd5b823567ffffffffffffffff81111562001827578283fd5b62001835858286016200167f565b925050620017696020840162001662565b6000806000606084860312156200185b578081fd5b833567ffffffffffffffff8082111562001873578283fd5b62001881878388016200167f565b9450602086013591508082111562001897578283fd5b620018a5878388016200167f565b93506040860135915080821115620018bb578283fd5b50620018ca868287016200167f565b9150509250925092565b60008060408385031215620018e7578182fd5b823567ffffffffffffffff811115620018fe578283fd5b6200190c858286016200167f565b95602094909401359450505050565b6000806000806080858703121562001931578081fd5b843567ffffffffffffffff8082111562001949578283fd5b62001957888389016200167f565b955060208701359450604087013591508082111562001974578283fd5b5062001983878288016200167f565b925050620019946060860162001662565b905092959194509250565b600060208284031215620019b1578081fd5b5051919050565b60008151808452620019d281602086016020860162001c31565b601f01601f19169290920160200192915050565b60008251620019fa81846020870162001c31565b9190910192915050565b7f416363657373436f6e74726f6c3a206163636f756e742000000000000000000081526000835162001a3e81601785016020880162001c31565b7f206973206d697373696e6720726f6c6520000000000000000000000000000000601791840191820152835162001a7d81602884016020880162001c31565b01602801949350505050565b600160a060020a038416815282602082015260606040820152600062001ab36060830184620019b8565b95945050505050565b602081526000620007386020830184620019b8565b60408152600062001ae66040830185620019b8565b828103602084015262001ab38185620019b8565b60208082526043908201527f436f6d6d69747461626c6552656769737472793a2063616c6c6572206973206e60408201527f6f74206f776e6572206f6620656974686572207265676973747279206f72207260608201527f65706f0000000000000000000000000000000000000000000000000000000000608082015260a00190565b60208082526034908201527f546865207265706f7369746f727920686173206e6f74206265656e206465706c60408201527f6f79656420617320436f6d6d69747461626c6521000000000000000000000000606082015260800190565b6000821982111562001bf05762001bf062001cbe565b500190565b600081600019048311821515161562001c125762001c1262001cbe565b500290565b60008282101562001c2c5762001c2c62001cbe565b500390565b60005b8381101562001c4e57818101518382015260200162001c34565b8381111562001c5e576000848401525b50505050565b60008162001c765762001c7662001cbe565b506000190190565b60028104600182168062001c9357607f821691505b6020821081141562001cb85760e060020a634e487b7102600052602260045260246000fd5b50919050565b60e060020a634e487b7102600052601160045260246000fd5b60e060020a634e487b7102600052604160045260246000fdfe60806040523480156200001157600080fd5b5060405162002f2038038062002f20833981016040819052620000349162000228565b818160006200004b640100000000620000cb810204565b60008054600160a060020a031916600160a060020a0383169081178255604051929350917f8be0079c531659141344cd1fd0a4f28419497f9722a3daafe3b4186f6b6457e0908290a3508151620000aa906001906020850190620000cf565b508051620000c0906002906020840190620000cf565b505050505062000314565b3390565b828054620000dd906200028f565b90600052602060002090601f0160209004810192826200010157600085556200014c565b82601f106200011c57805160ff19168380011785556200014c565b828001600101855582156200014c579182015b828111156200014c5782518255916020019190600101906200012f565b506200015a9291506200015e565b5090565b5b808211156200015a57600081556001016200015f565b600082601f83011262000186578081fd5b81516001604060020a0380821115620001a357620001a3620002e5565b604051601f8301601f19908116603f01168101908282118183101715620001ce57620001ce620002e5565b81604052838152602092508683858801011115620001ea578485fd5b8491505b838210156200020d5785820183015181830184015290820190620001ee565b838211156200021e57848385830101525b9695505050505050565b600080604083850312156200023b578182fd5b82516001604060020a038082111562000252578384fd5b620002608683870162000175565b9350602085015191508082111562000276578283fd5b50620002858582860162000175565b9150509250929050565b600281046001821680620002a457607f821691505b60208210811415620002df577f4e487b7100000000000000000000000000000000000000000000000000000000600052602260045260246000fd5b50919050565b7f4e487b7100000000000000000000000000000000000000000000000000000000600052604160045260246000fd5b612bfc80620003246000396000f3fe6080604052600436106101ed576000357c01000000000000000000000000000000000000000000000000000000009004806370a0823111610114578063b88d4fde116100b2578063e33b7de311610081578063e33b7de31461058c578063e3ca07e4146105a2578063e985e9c5146105c2578063f2fde38b1461060b57600080fd5b8063b88d4fde146104ff578063c87b56dd1461051f578063ce7c2ac21461053f578063d3fc98641461056c57600080fd5b806395d89b41116100ee57806395d89b411461047d5780639852595c146104925780639f03ef07146104bf578063a22cb465146104df57600080fd5b806370a082311461042a578063715018a61461044a5780638da5cb5b1461045f57600080fd5b80632f745c591161018c5780634f6ccce71161015b5780634f6ccce7146103aa5780635edcac69146103ca57806363037b0c146103ea5780636352211e1461040a57600080fd5b80632f745c591461033e5780633a98ef391461035e5780633b919ba81461037457806342842e0e1461038a57600080fd5b8063081812fc116101c8578063081812fc146102a7578063095ea7b3146102df57806318160ddd146102ff57806323b872dd1461031e57600080fd5b806223de291461022e57806301ffc9a71461025057806306fdde031461028557600080fd5b366102295760405134815233907f6ef95f06320e7a25a04a175ca677b7052bdd97131872c2192525a629f51be7709060200160405180910390a2005b600080fd5b34801561023a57600080fd5b5061024e610249366004612638565b61062b565b005b34801561025c57600080fd5b5061027061026b366004612869565b6106a1565b60405190151581526020015b60405180910390f35b34801561029157600080fd5b5061029a6106b2565b60405161027c9190612950565b3480156102b357600080fd5b506102c76102c23660046128a1565b610744565b604051600160a060020a03909116815260200161027c565b3480156102eb57600080fd5b5061024e6102fa3660046127d4565b6107e0565b34801561030b57600080fd5b506009545b60405190815260200161027c565b34801561032a57600080fd5b5061024e6103393660046126e6565b610918565b34801561034a57600080fd5b506103106103593660046127d4565b61094c565b34801561036a57600080fd5b50610310600c5481565b34801561038057600080fd5b50610310600e5481565b34801561039657600080fd5b5061024e6103a53660046126e6565b6109f7565b3480156103b657600080fd5b506103106103c53660046128a1565b610a12565b3480156103d657600080fd5b5061024e6103e53660046128a1565b610aca565b3480156103f657600080fd5b506102c76104053660046128a1565b610c47565b34801561041657600080fd5b506102c76104253660046128a1565b610c71565b34801561043657600080fd5b506103106104453660046125e4565b610cff565b34801561045657600080fd5b5061024e610d9c565b34801561046b57600080fd5b50600054600160a060020a03166102c7565b34801561048957600080fd5b5061029a610e20565b34801561049e57600080fd5b506103106104ad3660046125e4565b60106020526000908152604090205481565b3480156104cb57600080fd5b5061024e6104da3660046125e4565b610e2f565b3480156104eb57600080fd5b5061024e6104fa3660046127a3565b611020565b34801561050b57600080fd5b5061024e61051a366004612726565b6110e8565b34801561052b57600080fd5b5061029a61053a3660046128a1565b611123565b34801561054b57600080fd5b5061031061055a3660046125e4565b600f6020526000908152604090205481565b34801561057857600080fd5b506103106105873660046127ff565b61112e565b34801561059857600080fd5b50610310600d5481565b3480156105ae57600080fd5b506103106105bd3660046125e4565b611184565b3480156105ce57600080fd5b506102706105dd366004612600565b600160a060020a03918216600090815260066020908152604080832093909416825291909152205460ff1690565b34801561061757600080fd5b5061024e6106263660046125e4565b6111d6565b60405160e560020a62461bcd02815260206004820152603e60248201527f436f6d6d69747461626c6520646f206e6f7420737570706f727420646f6e617460448201527f696f6e73206f74686572207468616e20455448207269676874206e6f7721000060648201526084015b60405180910390fd5b60006106ac826112ea565b92915050565b6060600180546106c190612ae0565b80601f01602080910402602001604051908101604052809291908181526020018280546106ed90612ae0565b801561073a5780601f1061070f5761010080835404028352916020019161073a565b820191906000526020600020905b81548152906001019060200180831161071d57829003601f168201915b5050505050905090565b600061074f82611328565b6107c45760405160e560020a62461bcd02815260206004820152602c60248201527f4552433732313a20617070726f76656420717565727920666f72206e6f6e657860448201527f697374656e7420746f6b656e00000000000000000000000000000000000000006064820152608401610698565b50600090815260056020526040902054600160a060020a031690565b60006107eb82610c71565b905080600160a060020a031683600160a060020a031614156108785760405160e560020a62461bcd02815260206004820152602160248201527f4552433732313a20617070726f76616c20746f2063757272656e74206f776e6560448201527f72000000000000000000000000000000000000000000000000000000000000006064820152608401610698565b33600160a060020a0382161480610894575061089481336105dd565b6109095760405160e560020a62461bcd02815260206004820152603860248201527f4552433732313a20617070726f76652063616c6c6572206973206e6f74206f7760448201527f6e6572206e6f7220617070726f76656420666f7220616c6c00000000000000006064820152608401610698565b6109138383611345565b505050565b61092233826113c0565b6109415760405160e560020a62461bcd028152600401610698906129f5565b6109138383836114ba565b600061095783610cff565b82106109ce5760405160e560020a62461bcd02815260206004820152602b60248201527f455243373231456e756d657261626c653a206f776e657220696e646578206f7560448201527f74206f6620626f756e64730000000000000000000000000000000000000000006064820152608401610698565b50600160a060020a03919091166000908152600760209081526040808320938352929052205490565b610913838383604051806020016040528060008152506110e8565b6000610a1d60095490565b8210610a945760405160e560020a62461bcd02815260206004820152602c60248201527f455243373231456e756d657261626c653a20676c6f62616c20696e646578206f60448201527f7574206f6620626f756e647300000000000000000000000000000000000000006064820152608401610698565b60098281548110610ab85760e060020a634e487b7102600052603260045260246000fd5b90600052602060002001549050919050565b600054600160a060020a03163314610af75760405160e560020a62461bcd028152600401610698906129c0565b60008111610b705760405160e560020a62461bcd02815260206004820152602760248201527f43616e206e6f7420636f6d6d6974206772616e74207769746820656d7074792060448201527f616d6f756e7421000000000000000000000000000000000000000000000000006064820152608401610698565b600e54303190610b81908390612a52565b1115610bf85760405160e560020a62461bcd02815260206004820152602960248201527f4772616e74656420616d6f756e74206578636565647320746f74616c2045544860448201527f20686f6c64696e672100000000000000000000000000000000000000000000006064820152608401610698565b80600e6000828254610c0a9190612a52565b909155505060405181815233907f355894d98a50d395a938ab0ce2c87859191c6bedd976ad61881eb317f1fc951c9060200160405180910390a250565b60118181548110610c5757600080fd5b600091825260209091200154600160a060020a0316905081565b600081815260036020526040812054600160a060020a0316806106ac5760405160e560020a62461bcd02815260206004820152602960248201527f4552433732313a206f776e657220717565727920666f72206e6f6e657869737460448201527f656e7420746f6b656e00000000000000000000000000000000000000000000006064820152608401610698565b6000600160a060020a038216610d805760405160e560020a62461bcd02815260206004820152602a60248201527f4552433732313a2062616c616e636520717565727920666f7220746865207a6560448201527f726f2061646472657373000000000000000000000000000000000000000000006064820152608401610698565b50600160a060020a031660009081526004602052604090205490565b600054600160a060020a03163314610dc95760405160e560020a62461bcd028152600401610698906129c0565b60008054604051600160a060020a03909116907f8be0079c531659141344cd1fd0a4f28419497f9722a3daafe3b4186f6b6457e0908390a36000805473ffffffffffffffffffffffffffffffffffffffff19169055565b6060600280546106c190612ae0565b600160a060020a0381166000908152600f6020526040902054610ebd5760405160e560020a62461bcd02815260206004820152602260248201527f436f6d6d69747461626c653a206163636f756e7420686173206e6f207368617260448201527f65730000000000000000000000000000000000000000000000000000000000006064820152608401610698565b600160a060020a038116600090815260106020908152604080832054600c54600f90935290832054600e54919291610ef59190612a7e565b610eff9190612a6a565b610f099190612a9d565b905080610f815760405160e560020a62461bcd02815260206004820152602760248201527f436f6d6d69747461626c653a206163636f756e74206973206e6f74206475652060448201527f7061796d656e74000000000000000000000000000000000000000000000000006064820152608401610698565b600160a060020a038216600090815260106020526040902054610fa5908290612a52565b600160a060020a038316600090815260106020526040902055600d54610fcc908290612a52565b600d55610fd982826116a5565b81600160a060020a03167f043fb8d10ba6e817debd733434991f4f8040808b6c3a930ba46d666a30e6585f8260405161101491815260200190565b60405180910390a25050565b600160a060020a03821633141561107c5760405160e560020a62461bcd02815260206004820152601960248201527f4552433732313a20617070726f766520746f2063616c6c6572000000000000006044820152606401610698565b336000818152600660209081526040808320600160a060020a03871680855290835292819020805460ff191686151590811790915590519081529192917f17307eab39ab6107e8899845ad3d59bd9653f200f220920489ca2b5937696c31910160405180910390a35050565b6110f233836113c0565b6111115760405160e560020a62461bcd028152600401610698906129f5565b61111d848484846117c5565b50505050565b60606106ac826117fb565b60008054600160a060020a0316331461115c5760405160e560020a62461bcd028152600401610698906129c0565b826111678582611979565b6111718184611997565b61117c856001611a34565b949350505050565b600160a060020a038116600090815260106020908152604080832054600c54600f90935290832054600e548493916111bb91612a7e565b6111c59190612a6a565b6111cf9190612a9d565b9392505050565b600054600160a060020a031633146112035760405160e560020a62461bcd028152600401610698906129c0565b600160a060020a0381166112825760405160e560020a62461bcd02815260206004820152602660248201527f4f776e61626c653a206e6577206f776e657220697320746865207a65726f206160448201527f64647265737300000000000000000000000000000000000000000000000000006064820152608401610698565b60008054604051600160a060020a03808516939216917f8be0079c531659141344cd1fd0a4f28419497f9722a3daafe3b4186f6b6457e091a36000805473ffffffffffffffffffffffffffffffffffffffff1916600160a060020a0392909216919091179055565b6000600160e060020a031982167f780e9d630000000000000000000000000000000000000000000000000000000014806106ac57506106ac82611c48565b600090815260036020526040902054600160a060020a0316151590565b6000818152600560205260409020805473ffffffffffffffffffffffffffffffffffffffff1916600160a060020a038416908117909155819061138782610c71565b600160a060020a03167f8c5be1e5ebec7d5bd14f71427d1e84f3dd0314c0f7b2291e5b200ac8c7c3b92560405160405180910390a45050565b60006113cb82611328565b6114405760405160e560020a62461bcd02815260206004820152602c60248201527f4552433732313a206f70657261746f7220717565727920666f72206e6f6e657860448201527f697374656e7420746f6b656e00000000000000000000000000000000000000006064820152608401610698565b600061144b83610c71565b905080600160a060020a031684600160a060020a03161480611486575083600160a060020a031661147b84610744565b600160a060020a0316145b8061117c5750600160a060020a0380821660009081526006602090815260408083209388168352929052205460ff1661117c565b82600160a060020a03166114cd82610c71565b600160a060020a03161461154c5760405160e560020a62461bcd02815260206004820152602960248201527f4552433732313a207472616e73666572206f6620746f6b656e2074686174206960448201527f73206e6f74206f776e00000000000000000000000000000000000000000000006064820152608401610698565b600160a060020a0382166115ca5760405160e560020a62461bcd028152602060048201526024808201527f4552433732313a207472616e7366657220746f20746865207a65726f2061646460448201527f72657373000000000000000000000000000000000000000000000000000000006064820152608401610698565b6115d5838383611ce3565b6115e0600082611345565b600160a060020a0383166000908152600460205260408120805460019290611609908490612a9d565b9091555050600160a060020a0382166000908152600460205260408120805460019290611637908490612a52565b9091555050600081815260036020526040808220805473ffffffffffffffffffffffffffffffffffffffff1916600160a060020a0386811691821790925591518493918716917fddf252ad1be2c89b69c2b068fc378daa952ba7f163c4a11628f55a4df523b3ef91a4505050565b30318111156116f95760405160e560020a62461bcd02815260206004820152601d60248201527f416464726573733a20696e73756666696369656e742062616c616e63650000006044820152606401610698565b600082600160a060020a03168260405160006040518083038185875af1925050503d8060008114611746576040519150601f19603f3d011682016040523d82523d6000602084013e61174b565b606091505b50509050806109135760405160e560020a62461bcd02815260206004820152603a60248201527f416464726573733a20756e61626c6520746f2073656e642076616c75652c207260448201527f6563697069656e74206d617920686176652072657665727465640000000000006064820152608401610698565b6117d08484846114ba565b6117dc84848484611cee565b61111d5760405160e560020a62461bcd02815260040161069890612963565b606061180682611328565b61187b5760405160e560020a62461bcd02815260206004820152603160248201527f45524337323155524953746f726167653a2055524920717565727920666f722060448201527f6e6f6e6578697374656e7420746f6b656e0000000000000000000000000000006064820152608401610698565b6000828152600b60205260408120805461189490612ae0565b80601f01602080910402602001604051908101604052809291908181526020018280546118c090612ae0565b801561190d5780601f106118e25761010080835404028352916020019161190d565b820191906000526020600020905b8154815290600101906020018083116118f057829003601f168201915b50505050509050600061192b60408051602081019091526000815290565b905080516000141561193e575092915050565b8151156119705780826040516020016119589291906128e5565b60405160208183030381529060405292505050919050565b61117c84611e30565b611993828260405180602001604052806000815250611f18565b5050565b6119a082611328565b611a155760405160e560020a62461bcd02815260206004820152602e60248201527f45524337323155524953746f726167653a2055524920736574206f66206e6f6e60448201527f6578697374656e7420746f6b656e0000000000000000000000000000000000006064820152608401610698565b6000828152600b6020908152604090912082516109139284019061248e565b600160a060020a038216611ab35760405160e560020a62461bcd02815260206004820152602860248201527f436f6d6d69747461626c653a206163636f756e7420697320746865207a65726f60448201527f20616464726573730000000000000000000000000000000000000000000000006064820152608401610698565b60008111611b065760405160e560020a62461bcd02815260206004820152601960248201527f436f6d6d69747461626c653a20736861726573206172652030000000000000006044820152606401610698565b600160a060020a0382166000908152600f602052604090205415611b955760405160e560020a62461bcd02815260206004820152602760248201527f436f6d6d69747461626c653a206163636f756e7420616c72656164792068617360448201527f20736861726573000000000000000000000000000000000000000000000000006064820152608401610698565b60118054600181019091557f31ecc21a745e3968a04e9570e4425bc18fa8019c68028196b546d1669c200c6801805473ffffffffffffffffffffffffffffffffffffffff1916600160a060020a0384169081179091556000908152600f60205260409020819055600c54611c0a908290612a52565b600c55604051818152600160a060020a038316907f40c340f65e17194d14ddddb073d3c9f888e3cb52b5aae0c6c7706b4fbc905fac90602001611014565b6000600160e060020a031982167f80ac58cd000000000000000000000000000000000000000000000000000000001480611cab5750600160e060020a031982167f5b5e139f00000000000000000000000000000000000000000000000000000000145b806106ac57507f01ffc9a700000000000000000000000000000000000000000000000000000000600160e060020a03198316146106ac565b610913838383611f4e565b6000600160a060020a0384163b15611e25576040517f150b7a02000000000000000000000000000000000000000000000000000000008152600160a060020a0385169063150b7a0290611d4b903390899088908890600401612914565b602060405180830381600087803b158015611d6557600080fd5b505af1925050508015611d95575060408051601f3d908101601f19168201909252611d9291810190612885565b60015b611df2573d808015611dc3576040519150601f19603f3d011682016040523d82523d6000602084013e611dc8565b606091505b508051611dea5760405160e560020a62461bcd02815260040161069890612963565b805181602001fd5b600160e060020a0319167f150b7a020000000000000000000000000000000000000000000000000000000014905061117c565b506001949350505050565b6060611e3b82611328565b611eb05760405160e560020a62461bcd02815260206004820152602f60248201527f4552433732314d657461646174613a2055524920717565727920666f72206e6f60448201527f6e6578697374656e7420746f6b656e00000000000000000000000000000000006064820152608401610698565b6000611ec760408051602081019091526000815290565b90506000815111611ee757604051806020016040528060008152506111cf565b80611ef184612006565b604051602001611f029291906128e5565b6040516020818303038152906040529392505050565b611f228383612179565b611f2f6000848484611cee565b6109135760405160e560020a62461bcd02815260040161069890612963565b600160a060020a038316611fa957611fa481600980546000838152600a60205260408120829055600182018355919091527f6e1540171b6c0c960b71a7020d9f60077f6af931a8bbf590da0223dacf75c7af0155565b611fcc565b81600160a060020a031683600160a060020a031614611fcc57611fcc83826122cb565b600160a060020a038216611fe35761091381612368565b82600160a060020a031682600160a060020a03161461091357610913828261244a565b60608161204657505060408051808201909152600181527f3000000000000000000000000000000000000000000000000000000000000000602082015290565b8160005b8115612070578061205a81612b1e565b91506120699050600a83612a6a565b915061204a565b60008167ffffffffffffffff81111561209c5760e060020a634e487b7102600052604160045260246000fd5b6040519080825280601f01601f1916602001820160405280156120c6576020820181803683370190505b5090505b841561117c576120db600183612a9d565b91506120e8600a86612b39565b6120f3906030612a52565b7f0100000000000000000000000000000000000000000000000000000000000000028183815181106121385760e060020a634e487b7102600052603260045260246000fd5b60200101907effffffffffffffffffffffffffffffffffffffffffffffffffffffffffffff1916908160001a905350612172600a86612a6a565b94506120ca565b600160a060020a0382166121d25760405160e560020a62461bcd02815260206004820181905260248201527f4552433732313a206d696e7420746f20746865207a65726f20616464726573736044820152606401610698565b6121db81611328565b1561222b5760405160e560020a62461bcd02815260206004820152601c60248201527f4552433732313a20746f6b656e20616c7265616479206d696e746564000000006044820152606401610698565b61223760008383611ce3565b600160a060020a0382166000908152600460205260408120805460019290612260908490612a52565b9091555050600081815260036020526040808220805473ffffffffffffffffffffffffffffffffffffffff1916600160a060020a03861690811790915590518392907fddf252ad1be2c89b69c2b068fc378daa952ba7f163c4a11628f55a4df523b3ef908290a45050565b600060016122d884610cff565b6122e29190612a9d565b60008381526008602052604090205490915080821461233557600160a060020a03841660009081526007602090815260408083208584528252808320548484528184208190558352600890915290208190555b506000918252600860209081526040808420849055600160a060020a039094168352600781528383209183525290812055565b60095460009061237a90600190612a9d565b6000838152600a6020526040812054600980549394509092849081106123b35760e060020a634e487b7102600052603260045260246000fd5b9060005260206000200154905080600983815481106123e55760e060020a634e487b7102600052603260045260246000fd5b6000918252602080832090910192909255828152600a9091526040808220849055858252812055600980548061242e5760e060020a634e487b7102600052603160045260246000fd5b6001900381819060005260206000200160009055905550505050565b600061245583610cff565b600160a060020a039093166000908152600760209081526040808320868452825280832085905593825260089052919091209190915550565b82805461249a90612ae0565b90600052602060002090601f0160209004810192826124bc5760008555612502565b82601f106124d557805160ff1916838001178555612502565b82800160010185558215612502579182015b828111156125025782518255916020019190600101906124e7565b5061250e929150612512565b5090565b5b8082111561250e5760008155600101612513565b600067ffffffffffffffff8084111561254257612542612b7f565b604051601f8501601f19908116603f0116810190828211818310171561256a5761256a612b7f565b8160405280935085815286868601111561258357600080fd5b858560208301376000602087830101525050509392505050565b60008083601f8401126125ae578182fd5b50813567ffffffffffffffff8111156125c5578182fd5b6020830191508360208285010111156125dd57600080fd5b9250929050565b6000602082840312156125f5578081fd5b81356111cf81612b98565b60008060408385031215612612578081fd5b823561261d81612b98565b9150602083013561262d81612b98565b809150509250929050565b60008060008060008060008060c0898b031215612653578384fd5b883561265e81612b98565b9750602089013561266e81612b98565b9650604089013561267e81612b98565b955060608901359450608089013567ffffffffffffffff808211156126a1578586fd5b6126ad8c838d0161259d565b909650945060a08b01359150808211156126c5578384fd5b506126d28b828c0161259d565b999c989b5096995094979396929594505050565b6000806000606084860312156126fa578283fd5b833561270581612b98565b9250602084013561271581612b98565b929592945050506040919091013590565b6000806000806080858703121561273b578384fd5b843561274681612b98565b9350602085013561275681612b98565b925060408501359150606085013567ffffffffffffffff811115612778578182fd5b8501601f81018713612788578182fd5b61279787823560208401612527565b91505092959194509250565b600080604083850312156127b5578182fd5b82356127c081612b98565b91506020830135801515811461262d578182fd5b600080604083850312156127e6578182fd5b82356127f181612b98565b946020939093013593505050565b600080600060608486031215612813578283fd5b833561281e81612b98565b925060208401359150604084013567ffffffffffffffff811115612840578182fd5b8401601f81018613612850578182fd5b61285f86823560208401612527565b9150509250925092565b60006020828403121561287a578081fd5b81356111cf81612bb0565b600060208284031215612896578081fd5b81516111cf81612bb0565b6000602082840312156128b2578081fd5b5035919050565b600081518084526128d1816020860160208601612ab4565b601f01601f19169290920160200192915050565b600083516128f7818460208801612ab4565b83519083019061290b818360208801612ab4565b01949350505050565b6000600160a060020a0380871683528086166020840152508360408301526080606083015261294660808301846128b9565b9695505050505050565b6020815260006111cf60208301846128b9565b60208082526032908201527f4552433732313a207472616e7366657220746f206e6f6e20455243373231526560408201527f63656976657220696d706c656d656e7465720000000000000000000000000000606082015260800190565b6020808252818101527f4f776e61626c653a2063616c6c6572206973206e6f7420746865206f776e6572604082015260600190565b60208082526031908201527f4552433732313a207472616e736665722063616c6c6572206973206e6f74206f60408201527f776e6572206e6f7220617070726f766564000000000000000000000000000000606082015260800190565b60008219821115612a6557612a65612b4d565b500190565b600082612a7957612a79612b66565b500490565b6000816000190483118215151615612a9857612a98612b4d565b500290565b600082821015612aaf57612aaf612b4d565b500390565b60005b83811015612acf578181015183820152602001612ab7565b8381111561111d5750506000910152565b600281046001821680612af457607f821691505b60208210811415612b185760e060020a634e487b7102600052602260045260246000fd5b50919050565b6000600019821415612b3257612b32612b4d565b5060010190565b600082612b4857612b48612b66565b500690565b60e060020a634e487b7102600052601160045260246000fd5b60e060020a634e487b7102600052601260045260246000fd5b60e060020a634e487b7102600052604160045260246000fd5b600160a060020a0381168114612bad57600080fd5b50565b600160e060020a031981168114612bad57600080fdfea2646970667358221220311052a842657725b371f01dc8ca478a8f6e839b8e944b4970d17c8ed0f9ff2464736f6c63430008040033a26469706673582212202c8b0236e55835715b51a216f81ea33ea155675f9db63633c5346da2b6c9428664736f6c63430008040033d55633956f60185ced49736c9928ba6221ab58bfc18474e077d545dc7a5c0e25",
  "immutableReferences": {},
  "source": "// SPDX-License-Identifier: MIT\n\npragma solidity ^0.8.0;\n\nimport \"@openzeppelin/contracts/access/Ownable.sol\";\nimport \"@openzeppelin/contracts/access/AccessControlEnumerable.sol\";\nimport \"./Committable.sol\";\n\ncontract CommittableRegistry is Ownable, AccessControlEnumerable {\n    /**\n    * @dev\n    */\n    event DeployCommittable(\n        string indexed repoURI,\n        string indexed repoName,\n        string indexed repoSymbol,\n        Committable newCommittable\n    );\n\n    /**\n    * @dev\n    */\n    event MintCommittable(\n        address indexed minter,\n        string indexed repoURI,\n        string indexed tokenURI,\n        uint256 tokenId\n    );\n\n    // Mapping from repo URL to activate status and repo owner\n    mapping(string => bool) public activates;\n    mapping(string => mapping(address => bool)) public owners;\n\n    // Mapping from repo URL to deployed committable contract\n    mapping(string => Committable) public committables;\n\n    // Array with all deployed repo URLs, used for enumeration\n    string[] public repos;\n\n    /**\n    * @dev\n    */\n    constructor() {\n        // Grant `CommittableRegistry` owner as \"COMMITTABLE_ADMIN\" role, which controls whether\n        // addresses can be regarded as \"REPO_OWNER\" (i.e., repository owner).\n        _setupRole(keccak256(\"COMMITTABLE_ADMIN\"), _msgSender());\n        _setRoleAdmin(keccak256(\"REPO_OWNER\"), keccak256(\"COMMITTABLE_ADMIN\"));\n    }\n\n    /**\n    * @dev Retrieve number of git repositories that are already activated by their owners.\n    */\n    function numberOfRepos() public view returns (uint256) {\n        return repos.length;\n    }\n\n    /**\n    * @dev\n    */\n    modifier canActivate() {\n        require(owner() == _msgSender()\n            || hasRole(keccak256(\"REPO_OWNER\"), _msgSender()),\n            \"CommittableRegistry: caller is not owner of either registry or repo\");\n        _;\n    }\n\n    /**\n    * @dev Deploy a new committable contract, which represents a new activated git repository.\n    *\n    * This function is invoked when repository owner chooses to activate `Committable` for his/her repository.\n    */\n    function activateCommittable(\n        string memory repoURI,\n        string memory repoName,\n        string memory repoSymbol\n    ) public canActivate virtual returns (Committable) {\n        require(!activates[repoURI], \"The repository has already deployed as Committable!\");\n\n        Committable committable = new Committable(repoName, repoSymbol);\n        activates[repoURI] = true;\n        committables[repoURI] = committable;\n        repos.push(repoURI);\n\n        emit DeployCommittable(repoURI, repoName, repoSymbol, committable);\n        return committable;\n    }\n\n    /**\n    * @dev\n    */\n    modifier canMint() {\n        require(owner() == _msgSender()\n            || hasRole(keccak256(\"REPO_CONTRIBUTOR\"), _msgSender()),\n            \"CommittableRegistry: caller is not registry contributor or registry owner\");\n        _;\n    }\n\n    /**\n    * @dev\n    */\n    function mintCommittable(\n        string memory repoURI,\n        uint256 commitId,\n        string memory tokenURI,\n        address committer\n    ) public canMint virtual returns (uint256) {\n        require(activates[repoURI], \"The repository has not been deployed as Committable!\");\n\n        Committable committable = committables[repoURI];\n        uint256 tokenId = committable.mint(committer, commitId, tokenURI);\n        emit MintCommittable(committer, repoURI, tokenURI, tokenId);\n        return tokenId;\n    }\n\n    /**\n    * @dev\n    */\n    modifier canGrant() {\n        require(owner() == _msgSender()\n            || hasRole(keccak256(\"REPO_OWNER\"), _msgSender()),\n            \"CommittableRegistry: caller is not owner of either registry or repo\");\n        _;\n    }\n\n    /**\n    * @dev\n    */\n    function grantDividend(string memory repoURI, uint256 amount) public canGrant virtual {\n        require(activates[repoURI], \"The repository has not been deployed as Committable!\");\n\n        Committable committable = committables[repoURI];\n        committable.grantDividend(amount);\n    }\n}\n",
  "sourcePath": "/Users/Charles/Workspace/Projects/Ethereum/committable/contracts/CommittableRegistry.sol",
  "compiler": {
    "name": "solc",
    "version": "0.8.4+commit.c7e474f2.Emscripten.clang"
  },
  "schemaVersion": "3.4.0",
  "updatedAt": "2021-05-14T15:18:53.611Z",
  "devdoc": {
    "kind": "dev",
    "methods": {
      "activateCommittable(string,string,string)": {
        "details": "Deploy a new committable contract, which represents a new activated git repository. This function is invoked when repository owner chooses to activate `Committable` for his/her repository."
      },
      "getRoleAdmin(bytes32)": {
        "details": "Returns the admin role that controls `role`. See {grantRole} and {revokeRole}. To change a role's admin, use {_setRoleAdmin}."
      },
      "getRoleMember(bytes32,uint256)": {
        "details": "Returns one of the accounts that have `role`. `index` must be a value between 0 and {getRoleMemberCount}, non-inclusive. Role bearers are not sorted in any particular way, and their ordering may change at any point. WARNING: When using {getRoleMember} and {getRoleMemberCount}, make sure you perform all queries on the same block. See the following https://forum.openzeppelin.com/t/iterating-over-elements-on-enumerableset-in-openzeppelin-contracts/2296[forum post] for more information."
      },
      "getRoleMemberCount(bytes32)": {
        "details": "Returns the number of accounts that have `role`. Can be used together with {getRoleMember} to enumerate all bearers of a role."
      },
      "grantRole(bytes32,address)": {
        "details": "Overload {grantRole} to track enumerable memberships"
      },
      "hasRole(bytes32,address)": {
        "details": "Returns `true` if `account` has been granted `role`."
      },
      "numberOfRepos()": {
        "details": "Retrieve number of git repositories that are already activated by their owners."
      },
      "owner()": {
        "details": "Returns the address of the current owner."
      },
      "renounceOwnership()": {
        "details": "Leaves the contract without owner. It will not be possible to call `onlyOwner` functions anymore. Can only be called by the current owner. NOTE: Renouncing ownership will leave the contract without an owner, thereby removing any functionality that is only available to the owner."
      },
      "renounceRole(bytes32,address)": {
        "details": "Overload {renounceRole} to track enumerable memberships"
      },
      "revokeRole(bytes32,address)": {
        "details": "Overload {revokeRole} to track enumerable memberships"
      },
      "supportsInterface(bytes4)": {
        "details": "See {IERC165-supportsInterface}."
      },
      "transferOwnership(address)": {
        "details": "Transfers ownership of the contract to a new account (`newOwner`). Can only be called by the current owner."
      }
    },
    "version": 1
  },
  "userdoc": {
    "kind": "user",
    "methods": {},
    "version": 1
  }
}